{
  "_format": "hh-sol-artifact-1",
  "contractName": "HumanityRewards",
  "sourceName": "contracts/HumanityRewards.sol",
  "abi": [
    {
      "inputs": [
        {
          "internalType": "contract IWorldID",
          "name": "_worldId",
          "type": "address"
        }
      ],
      "stateMutability": "payable",
      "type": "constructor"
    },
    {
      "anonymous": false,
      "inputs": [
        {
          "indexed": false,
          "internalType": "address",
          "name": "recipient",
          "type": "address"
        },
        {
          "indexed": false,
          "internalType": "string",
          "name": "reason",
          "type": "string"
        }
      ],
      "name": "ClaimRejected",
      "type": "event"
    },
    {
      "anonymous": false,
      "inputs": [
        {
          "indexed": false,
          "internalType": "address",
          "name": "recipient",
          "type": "address"
        },
        {
          "indexed": false,
          "internalType": "uint256",
          "name": "amount",
          "type": "uint256"
        }
      ],
      "name": "RewardClaimed",
      "type": "event"
    },
    {
      "inputs": [
        {
          "internalType": "address",
          "name": "signal",
          "type": "address"
        },
        {
          "internalType": "uint256",
          "name": "root",
          "type": "uint256"
        },
        {
          "internalType": "uint256",
          "name": "nullifierHash",
          "type": "uint256"
        },
        {
          "internalType": "uint256[8]",
          "name": "proof",
          "type": "uint256[8]"
        }
      ],
      "name": "claimReward",
      "outputs": [],
      "stateMutability": "nonpayable",
      "type": "function"
    },
    {
      "stateMutability": "payable",
      "type": "receive"
    }
  ],
  "bytecode": "0x60c0604052600160a090815250604051610bb3380380610bb3833981810160405281019061002d91906100dc565b8073ffffffffffffffffffffffffffffffffffffffff1660808173ffffffffffffffffffffffffffffffffffffffff168152505050610109565b600080fd5b600073ffffffffffffffffffffffffffffffffffffffff82169050919050565b60006100978261006c565b9050919050565b60006100a98261008c565b9050919050565b6100b98161009e565b81146100c457600080fd5b50565b6000815190506100d6816100b0565b92915050565b6000602082840312156100f2576100f1610067565b5b6000610100848285016100c7565b91505092915050565b60805160a051610a8661012d60003960006101260152600060e90152610a866000f3fe6080604052600436106100225760003560e01c80633162d3d81461002e57610029565b3661002957005b600080fd5b34801561003a57600080fd5b5061005560048036038101906100509190610530565b610057565b005b62015180600160003373ffffffffffffffffffffffffffffffffffffffff1673ffffffffffffffffffffffffffffffffffffffff168152602001908152602001600020546100a591906105c7565b4210156100e7576040517f08c379a00000000000000000000000000000000000000000000000000000000081526004016100de9061067e565b60405180910390fd5b7f000000000000000000000000000000000000000000000000000000000000000073ffffffffffffffffffffffffffffffffffffffff16633bc778e3847f000000000000000000000000000000000000000000000000000000000000000061016d8860405160200161015991906106e6565b604051602081830303815290604052610458565b866101cb6040518060400160405280600c81526020017f636c61696d5f72657761726400000000000000000000000000000000000000008152506040516020016101b79190610772565b604051602081830303815290604052610458565b876040518763ffffffff1660e01b81526004016101ed969594939291906107b2565b60006040518083038186803b15801561020557600080fd5b505afa925050508015610216575060015b610256577f9cd0246523242c3a5a5cb723a836954a7e60fb1382efec8ff754243c6504141c33604051610249919061086f565b60405180910390a1610452565b60008083815260200190815260200160002060009054906101000a900460ff16156102b6576040517f08c379a00000000000000000000000000000000000000000000000000000000081526004016102ad906108e9565b60405180910390fd5b600160008084815260200190815260200160002060006101000a81548160ff02191690831515021790555042600160003373ffffffffffffffffffffffffffffffffffffffff1673ffffffffffffffffffffffffffffffffffffffff16815260200190815260200160002081905550600a471015610369576040517f08c379a000000000000000000000000000000000000000000000000000000000815260040161036090610955565b60405180910390fd5b60003373ffffffffffffffffffffffffffffffffffffffff16600a604051610390906109a6565b60006040518083038185875af1925050503d80600081146103cd576040519150601f19603f3d011682016040523d82523d6000602084013e6103d2565b606091505b5050905080610416576040517f08c379a000000000000000000000000000000000000000000000000000000000815260040161040d90610a07565b60405180910390fd5b7f106f923f993c2149d49b4255ff723acafa1f2d94393f561d3eda32ae348f724133600a604051610448929190610a27565b60405180910390a1505b50505050565b60006008828051906020012060001c901c9050919050565b600080fd5b600073ffffffffffffffffffffffffffffffffffffffff82169050919050565b60006104a082610475565b9050919050565b6104b081610495565b81146104bb57600080fd5b50565b6000813590506104cd816104a7565b92915050565b6000819050919050565b6104e6816104d3565b81146104f157600080fd5b50565b600081359050610503816104dd565b92915050565b600080fd5b60008190508260206008028201111561052a57610529610509565b5b92915050565b600080600080610160858703121561054b5761054a610470565b5b6000610559878288016104be565b945050602061056a878288016104f4565b935050604061057b878288016104f4565b925050606061058c8782880161050e565b91505092959194509250565b7f4e487b7100000000000000000000000000000000000000000000000000000000600052601160045260246000fd5b60006105d2826104d3565b91506105dd836104d3565b92508282019050808211156105f5576105f4610598565b5b92915050565b600082825260208201905092915050565b7f4d757374207761697420323420686f757273206265747765656e20636c61696d60008201527f7300000000000000000000000000000000000000000000000000000000000000602082015250565b60006106686021836105fb565b91506106738261060c565b604082019050919050565b600060208201905081810360008301526106978161065b565b9050919050565b60008160601b9050919050565b60006106b68261069e565b9050919050565b60006106c8826106ab565b9050919050565b6106e06106db82610495565b6106bd565b82525050565b60006106f282846106cf565b60148201915081905092915050565b600081519050919050565b600081905092915050565b60005b8381101561073557808201518184015260208101905061071a565b60008484015250505050565b600061074c82610701565b610756818561070c565b9350610766818560208601610717565b80840191505092915050565b600061077e8284610741565b915081905092915050565b610792816104d3565b82525050565b82818337505050565b6107ae6101008383610798565b5050565b60006101a0820190506107c86000830189610789565b6107d56020830188610789565b6107e26040830187610789565b6107ef6060830186610789565b6107fc6080830185610789565b61080960a08301846107a1565b979650505050505050565b61081d81610495565b82525050565b7f496e76616c69642070726f6f6600000000000000000000000000000000000000600082015250565b6000610859600d836105fb565b915061086482610823565b602082019050919050565b60006040820190506108846000830184610814565b81810360208301526108958161084c565b905092915050565b7f50726f6f6620616c726561647920757365640000000000000000000000000000600082015250565b60006108d36012836105fb565b91506108de8261089d565b602082019050919050565b60006020820190508181036000830152610902816108c6565b9050919050565b7f496e73756666696369656e7420636f6e74726163742062616c616e6365000000600082015250565b600061093f601d836105fb565b915061094a82610909565b602082019050919050565b6000602082019050818103600083015261096e81610932565b9050919050565b600081905092915050565b50565b6000610990600083610975565b915061099b82610980565b600082019050919050565b60006109b182610983565b9150819050919050565b7f4661696c656420746f2073656e64207265776172640000000000000000000000600082015250565b60006109f16015836105fb565b91506109fc826109bb565b602082019050919050565b60006020820190508181036000830152610a20816109e4565b9050919050565b6000604082019050610a3c6000830185610814565b610a496020830184610789565b939250505056fea26469706673582212207f21b7999e854f47967a7a054bf6e2fb0455fb5e49dbc97ce5f5a0f87dbf370964736f6c634300081c0033",
  "linkReferences": {},
  "deployedLinkReferences": {}
}